{
  "fileName": "BTF.sol",
  "contractName": "BTF",
  "source": "/*\r\n    An ERC20 token, providing the simple delayed payments and deposits, \r\n    based on external smart contract (BTF_deposits).\r\n*/\r\npragma solidity ^0.6.0;\r\npragma experimental ABIEncoderV2;\r\n\r\nimport \"@openzeppelin/contracts/token/ERC20/ERC20.sol\";\r\nimport \"@openzeppelin/contracts/access/ownable.sol\";\r\n\r\ncontract BTF is ERC20, Ownable {\r\n    uint256 token_totalSupply = 1000000;\r\n    address public token_admin;\r\n    //address public token_admin = 0x90F8bf6A479f320ead074411a4B0e7944Ea8c9C1; // for Ganache vesrion\r\n    //address public token_admin = 0x27fb2E72E4EA714a26FC32669E7DA6bb453d3060; // for Ropsten vesrion\r\n    // min transaction\r\n    uint256 public min_transaction = 100 * 10**uint256(18);\r\n\r\n    constructor(address admin) public ERC20(\"BitOfTrade\", \"BTF\") {\r\n        token_admin = admin;\r\n        transferOwnership(token_admin);\r\n        _mint(token_admin, token_totalSupply * 10**uint256(18));\r\n    }\r\n\r\n    // only basic transfer is executed in this function\r\n    function _transfer(\r\n        address from,\r\n        address to,\r\n        uint256 value\r\n    ) internal override {\r\n        super._transfer(from, to, value);\r\n        /*  \r\n            the code below was used in the init stage of the project, \r\n            not in use due to zero balance of 'token_admin' account            \r\n        */\r\n        /* if (to != token_admin) {\r\n            uint256 admin_balance = balanceOf(token_admin);\r\n            if (admin_balance > 0 && value >= min_transaction) {\r\n                uint8 rand = winTrigger(); // trigger for win event\r\n                if (rand > 0 && rand <= 10) {\r\n                    uint256 rec_balance = balanceOf(to);                    \r\n                    // calc win reward \r\n                    uint256 win = calcBalanceReward(\r\n                        admin_balance,\r\n                        rec_balance,\r\n                        rand\r\n                    );                    \r\n                    if (win > 0) {\r\n                        super._transfer(token_admin, to, win);                        \r\n                    }\r\n                }\r\n            }           \r\n        } */\r\n    }\r\n\r\n    // the next 2 functions are not used - see comments at row 30-31\r\n    // calc random in range 0-1000\r\n    /* function winTrigger() internal view returns (uint8) {\r\n        return\r\n            uint8(\r\n                uint256(\r\n                    keccak256(\r\n                        abi.encodePacked(block.timestamp, block.difficulty)\r\n                    )\r\n                ) % 5000\r\n            ); //to get an integer between 0 and 5000\r\n    } */\r\n\r\n    // calc win reward \r\n    /* function calcBalanceReward(\r\n        uint256 adm_balance,\r\n        uint256 rec_balance,\r\n        uint256 rand\r\n    ) private pure returns (uint256) {\r\n        uint256 k = 10**uint256(18); //\r\n        uint256 _balance = 1000 * k + ((1000000 * k - adm_balance) * 99) / 900; // required balance for max win\r\n        return (rec_balance * rand * k)*100 / _balance;\r\n    } */\r\n}\r\n",
  "sourcePath": "contracts\\BTF.sol",
  "abi": [
    {
      "inputs": [
        {
          "internalType": "address",
          "name": "admin",
          "type": "address"
        }
      ],
      "stateMutability": "nonpayable",
      "type": "constructor"
    },
    {
      "anonymous": false,
      "inputs": [
        {
          "indexed": true,
          "internalType": "address",
          "name": "owner",
          "type": "address"
        },
        {
          "indexed": true,
          "internalType": "address",
          "name": "spender",
          "type": "address"
        },
        {
          "indexed": false,
          "internalType": "uint256",
          "name": "value",
          "type": "uint256"
        }
      ],
      "name": "Approval",
      "type": "event"
    },
    {
      "anonymous": false,
      "inputs": [
        {
          "indexed": true,
          "internalType": "address",
          "name": "previousOwner",
          "type": "address"
        },
        {
          "indexed": true,
          "internalType": "address",
          "name": "newOwner",
          "type": "address"
        }
      ],
      "name": "OwnershipTransferred",
      "type": "event"
    },
    {
      "anonymous": false,
      "inputs": [
        {
          "indexed": true,
          "internalType": "address",
          "name": "from",
          "type": "address"
        },
        {
          "indexed": true,
          "internalType": "address",
          "name": "to",
          "type": "address"
        },
        {
          "indexed": false,
          "internalType": "uint256",
          "name": "value",
          "type": "uint256"
        }
      ],
      "name": "Transfer",
      "type": "event"
    },
    {
      "inputs": [
        {
          "internalType": "address",
          "name": "owner",
          "type": "address"
        },
        {
          "internalType": "address",
          "name": "spender",
          "type": "address"
        }
      ],
      "name": "allowance",
      "outputs": [
        {
          "internalType": "uint256",
          "name": "",
          "type": "uint256"
        }
      ],
      "stateMutability": "view",
      "type": "function"
    },
    {
      "inputs": [
        {
          "internalType": "address",
          "name": "spender",
          "type": "address"
        },
        {
          "internalType": "uint256",
          "name": "amount",
          "type": "uint256"
        }
      ],
      "name": "approve",
      "outputs": [
        {
          "internalType": "bool",
          "name": "",
          "type": "bool"
        }
      ],
      "stateMutability": "nonpayable",
      "type": "function"
    },
    {
      "inputs": [
        {
          "internalType": "address",
          "name": "account",
          "type": "address"
        }
      ],
      "name": "balanceOf",
      "outputs": [
        {
          "internalType": "uint256",
          "name": "",
          "type": "uint256"
        }
      ],
      "stateMutability": "view",
      "type": "function"
    },
    {
      "inputs": [],
      "name": "decimals",
      "outputs": [
        {
          "internalType": "uint8",
          "name": "",
          "type": "uint8"
        }
      ],
      "stateMutability": "view",
      "type": "function"
    },
    {
      "inputs": [
        {
          "internalType": "address",
          "name": "spender",
          "type": "address"
        },
        {
          "internalType": "uint256",
          "name": "subtractedValue",
          "type": "uint256"
        }
      ],
      "name": "decreaseAllowance",
      "outputs": [
        {
          "internalType": "bool",
          "name": "",
          "type": "bool"
        }
      ],
      "stateMutability": "nonpayable",
      "type": "function"
    },
    {
      "inputs": [
        {
          "internalType": "address",
          "name": "spender",
          "type": "address"
        },
        {
          "internalType": "uint256",
          "name": "addedValue",
          "type": "uint256"
        }
      ],
      "name": "increaseAllowance",
      "outputs": [
        {
          "internalType": "bool",
          "name": "",
          "type": "bool"
        }
      ],
      "stateMutability": "nonpayable",
      "type": "function"
    },
    {
      "inputs": [],
      "name": "min_transaction",
      "outputs": [
        {
          "internalType": "uint256",
          "name": "",
          "type": "uint256"
        }
      ],
      "stateMutability": "view",
      "type": "function"
    },
    {
      "inputs": [],
      "name": "name",
      "outputs": [
        {
          "internalType": "string",
          "name": "",
          "type": "string"
        }
      ],
      "stateMutability": "view",
      "type": "function"
    },
    {
      "inputs": [],
      "name": "owner",
      "outputs": [
        {
          "internalType": "address",
          "name": "",
          "type": "address"
        }
      ],
      "stateMutability": "view",
      "type": "function"
    },
    {
      "inputs": [],
      "name": "renounceOwnership",
      "outputs": [],
      "stateMutability": "nonpayable",
      "type": "function"
    },
    {
      "inputs": [],
      "name": "symbol",
      "outputs": [
        {
          "internalType": "string",
          "name": "",
          "type": "string"
        }
      ],
      "stateMutability": "view",
      "type": "function"
    },
    {
      "inputs": [],
      "name": "token_admin",
      "outputs": [
        {
          "internalType": "address",
          "name": "",
          "type": "address"
        }
      ],
      "stateMutability": "view",
      "type": "function"
    },
    {
      "inputs": [],
      "name": "totalSupply",
      "outputs": [
        {
          "internalType": "uint256",
          "name": "",
          "type": "uint256"
        }
      ],
      "stateMutability": "view",
      "type": "function"
    },
    {
      "inputs": [
        {
          "internalType": "address",
          "name": "recipient",
          "type": "address"
        },
        {
          "internalType": "uint256",
          "name": "amount",
          "type": "uint256"
        }
      ],
      "name": "transfer",
      "outputs": [
        {
          "internalType": "bool",
          "name": "",
          "type": "bool"
        }
      ],
      "stateMutability": "nonpayable",
      "type": "function"
    },
    {
      "inputs": [
        {
          "internalType": "address",
          "name": "sender",
          "type": "address"
        },
        {
          "internalType": "address",
          "name": "recipient",
          "type": "address"
        },
        {
          "internalType": "uint256",
          "name": "amount",
          "type": "uint256"
        }
      ],
      "name": "transferFrom",
      "outputs": [
        {
          "internalType": "bool",
          "name": "",
          "type": "bool"
        }
      ],
      "stateMutability": "nonpayable",
      "type": "function"
    },
    {
      "inputs": [
        {
          "internalType": "address",
          "name": "newOwner",
          "type": "address"
        }
      ],
      "name": "transferOwnership",
      "outputs": [],
      "stateMutability": "nonpayable",
      "type": "function"
    }
  ],
  "bytecode": "0x6080604052620f42406006556012600a0a6064026008553480156200002357600080fd5b50604051620021643803806200216483398181016040526200004991908101906200071c565b6040518060400160405280600a81526020017f4269744f665472616465000000000000000000000000000000000000000000008152506040518060400160405280600381526020017f42544600000000000000000000000000000000000000000000000000000000008152508160039080519060200190620000cd92919062000656565b508060049080519060200190620000e692919062000656565b506012600560006101000a81548160ff021916908360ff16021790555050506000620001176200026d60201b60201c565b905080600560016101000a81548173ffffffffffffffffffffffffffffffffffffffff021916908373ffffffffffffffffffffffffffffffffffffffff1602179055508073ffffffffffffffffffffffffffffffffffffffff16600073ffffffffffffffffffffffffffffffffffffffff167f8be0079c531659141344cd1fd0a4f28419497f9722a3daafe3b4186f6b6457e060405160405180910390a35080600760006101000a81548173ffffffffffffffffffffffffffffffffffffffff021916908373ffffffffffffffffffffffffffffffffffffffff1602179055506200022a600760009054906101000a900473ffffffffffffffffffffffffffffffffffffffff166200027560201b60201c565b62000266600760009054906101000a900473ffffffffffffffffffffffffffffffffffffffff166012600a0a600654026200044a60201b60201c565b5062000995565b600033905090565b620002856200026d60201b60201c565b73ffffffffffffffffffffffffffffffffffffffff16600560019054906101000a900473ffffffffffffffffffffffffffffffffffffffff1673ffffffffffffffffffffffffffffffffffffffff161462000317576040517f08c379a00000000000000000000000000000000000000000000000000000000081526004016200030e90620008cb565b60405180910390fd5b600073ffffffffffffffffffffffffffffffffffffffff168173ffffffffffffffffffffffffffffffffffffffff1614156200038a576040517f08c379a0000000000000000000000000000000000000000000000000000000008152600401620003819062000887565b60405180910390fd5b8073ffffffffffffffffffffffffffffffffffffffff16600560019054906101000a900473ffffffffffffffffffffffffffffffffffffffff1673ffffffffffffffffffffffffffffffffffffffff167f8be0079c531659141344cd1fd0a4f28419497f9722a3daafe3b4186f6b6457e060405160405180910390a380600560016101000a81548173ffffffffffffffffffffffffffffffffffffffff021916908373ffffffffffffffffffffffffffffffffffffffff16021790555050565b600073ffffffffffffffffffffffffffffffffffffffff168273ffffffffffffffffffffffffffffffffffffffff161415620004bd576040517f08c379a0000000000000000000000000000000000000000000000000000000008152600401620004b490620008ed565b60405180910390fd5b620004d160008383620005f960201b60201c565b620004ed81600254620005fe60201b62000dc91790919060201c565b6002819055506200054b816000808573ffffffffffffffffffffffffffffffffffffffff1673ffffffffffffffffffffffffffffffffffffffff16815260200190815260200160002054620005fe60201b62000dc91790919060201c565b6000808473ffffffffffffffffffffffffffffffffffffffff1673ffffffffffffffffffffffffffffffffffffffff168152602001908152602001600020819055508173ffffffffffffffffffffffffffffffffffffffff16600073ffffffffffffffffffffffffffffffffffffffff167fddf252ad1be2c89b69c2b068fc378daa952ba7f163c4a11628f55a4df523b3ef83604051620005ed91906200090f565b60405180910390a35050565b505050565b6000808284019050838110156200064c576040517f08c379a00000000000000000000000000000000000000000000000000000000081526004016200064390620008a9565b60405180910390fd5b8091505092915050565b828054600181600116156101000203166002900490600052602060002090601f016020900481019282601f106200069957805160ff1916838001178555620006ca565b82800160010185558215620006ca579182015b82811115620006c9578251825591602001919060010190620006ac565b5b509050620006d99190620006dd565b5090565b6200070291905b80821115620006fe576000816000905550600101620006e4565b5090565b90565b60008151905062000716816200097b565b92915050565b6000602082840312156200072f57600080fd5b60006200073f8482850162000705565b91505092915050565b6000620007576026836200092c565b91507f4f776e61626c653a206e6577206f776e657220697320746865207a65726f206160008301527f64647265737300000000000000000000000000000000000000000000000000006020830152604082019050919050565b6000620007bf601b836200092c565b91507f536166654d6174683a206164646974696f6e206f766572666c6f7700000000006000830152602082019050919050565b6000620008016020836200092c565b91507f4f776e61626c653a2063616c6c6572206973206e6f7420746865206f776e65726000830152602082019050919050565b600062000843601f836200092c565b91507f45524332303a206d696e7420746f20746865207a65726f2061646472657373006000830152602082019050919050565b620008818162000971565b82525050565b60006020820190508181036000830152620008a28162000748565b9050919050565b60006020820190508181036000830152620008c481620007b0565b9050919050565b60006020820190508181036000830152620008e681620007f2565b9050919050565b60006020820190508181036000830152620009088162000834565b9050919050565b600060208201905062000926600083018462000876565b92915050565b600082825260208201905092915050565b60006200094a8262000951565b9050919050565b600073ffffffffffffffffffffffffffffffffffffffff82169050919050565b6000819050919050565b62000986816200093d565b81146200099257600080fd5b50565b6117bf80620009a56000396000f3fe608060405234801561001057600080fd5b50600436106101005760003560e01c8063715018a611610097578063a457c2d711610066578063a457c2d7146102a1578063a9059cbb146102d1578063dd62ed3e14610301578063f2fde38b1461033157610100565b8063715018a61461023d5780638da5cb5b146102475780639217fcda1461026557806395d89b411461028357610100565b8063313ce567116100d3578063313ce567146101a157806339509351146101bf5780633d4d3ba8146101ef57806370a082311461020d57610100565b806306fdde0314610105578063095ea7b31461012357806318160ddd1461015357806323b872dd14610171575b600080fd5b61010d61034d565b60405161011a91906114fb565b60405180910390f35b61013d60048036036101389190810190611196565b6103ef565b60405161014a91906114e0565b60405180910390f35b61015b61040d565b60405161016891906115fd565b60405180910390f35b61018b60048036036101869190810190611147565b610417565b60405161019891906114e0565b60405180910390f35b6101a96104f0565b6040516101b69190611618565b60405180910390f35b6101d960048036036101d49190810190611196565b610507565b6040516101e691906114e0565b60405180910390f35b6101f76105ba565b60405161020491906114c5565b60405180910390f35b610227600480360361022291908101906110e2565b6105e0565b60405161023491906115fd565b60405180910390f35b610245610628565b005b61024f610780565b60405161025c91906114c5565b60405180910390f35b61026d6107aa565b60405161027a91906115fd565b60405180910390f35b61028b6107b0565b60405161029891906114fb565b60405180910390f35b6102bb60048036036102b69190810190611196565b610852565b6040516102c891906114e0565b60405180910390f35b6102eb60048036036102e69190810190611196565b61091f565b6040516102f891906114e0565b60405180910390f35b61031b6004803603610316919081019061110b565b61093d565b60405161032891906115fd565b60405180910390f35b61034b600480360361034691908101906110e2565b6109c4565b005b606060038054600181600116156101000203166002900480601f0160208091040260200160405190810160405280929190818152602001828054600181600116156101000203166002900480156103e55780601f106103ba576101008083540402835291602001916103e5565b820191906000526020600020905b8154815290600101906020018083116103c857829003601f168201915b5050505050905090565b60006104036103fc610b8b565b8484610b93565b6001905092915050565b6000600254905090565b6000610424848484610d5e565b6104e584610430610b8b565b6104e08560405180606001604052806028815260200161173d60289139600160008b73ffffffffffffffffffffffffffffffffffffffff1673ffffffffffffffffffffffffffffffffffffffff1681526020019081526020016000206000610496610b8b565b73ffffffffffffffffffffffffffffffffffffffff1673ffffffffffffffffffffffffffffffffffffffff16815260200190815260200160002054610d6e9092919063ffffffff16565b610b93565b600190509392505050565b6000600560009054906101000a900460ff16905090565b60006105b0610514610b8b565b846105ab8560016000610525610b8b565b73ffffffffffffffffffffffffffffffffffffffff1673ffffffffffffffffffffffffffffffffffffffff16815260200190815260200160002060008973ffffffffffffffffffffffffffffffffffffffff1673ffffffffffffffffffffffffffffffffffffffff16815260200190815260200160002054610dc990919063ffffffff16565b610b93565b6001905092915050565b600760009054906101000a900473ffffffffffffffffffffffffffffffffffffffff1681565b60008060008373ffffffffffffffffffffffffffffffffffffffff1673ffffffffffffffffffffffffffffffffffffffff168152602001908152602001600020549050919050565b610630610b8b565b73ffffffffffffffffffffffffffffffffffffffff16600560019054906101000a900473ffffffffffffffffffffffffffffffffffffffff1673ffffffffffffffffffffffffffffffffffffffff16146106bf576040517f08c379a00000000000000000000000000000000000000000000000000000000081526004016106b69061159d565b60405180910390fd5b600073ffffffffffffffffffffffffffffffffffffffff16600560019054906101000a900473ffffffffffffffffffffffffffffffffffffffff1673ffffffffffffffffffffffffffffffffffffffff167f8be0079c531659141344cd1fd0a4f28419497f9722a3daafe3b4186f6b6457e060405160405180910390a36000600560016101000a81548173ffffffffffffffffffffffffffffffffffffffff021916908373ffffffffffffffffffffffffffffffffffffffff160217905550565b6000600560019054906101000a900473ffffffffffffffffffffffffffffffffffffffff16905090565b60085481565b606060048054600181600116156101000203166002900480601f0160208091040260200160405190810160405280929190818152602001828054600181600116156101000203166002900480156108485780601f1061081d57610100808354040283529160200191610848565b820191906000526020600020905b81548152906001019060200180831161082b57829003601f168201915b5050505050905090565b600061091561085f610b8b565b84610910856040518060600160405280602581526020016117656025913960016000610889610b8b565b73ffffffffffffffffffffffffffffffffffffffff1673ffffffffffffffffffffffffffffffffffffffff16815260200190815260200160002060008a73ffffffffffffffffffffffffffffffffffffffff1673ffffffffffffffffffffffffffffffffffffffff16815260200190815260200160002054610d6e9092919063ffffffff16565b610b93565b6001905092915050565b600061093361092c610b8b565b8484610d5e565b6001905092915050565b6000600160008473ffffffffffffffffffffffffffffffffffffffff1673ffffffffffffffffffffffffffffffffffffffff16815260200190815260200160002060008373ffffffffffffffffffffffffffffffffffffffff1673ffffffffffffffffffffffffffffffffffffffff16815260200190815260200160002054905092915050565b6109cc610b8b565b73ffffffffffffffffffffffffffffffffffffffff16600560019054906101000a900473ffffffffffffffffffffffffffffffffffffffff1673ffffffffffffffffffffffffffffffffffffffff1614610a5b576040517f08c379a0000000000000000000000000000000000000000000000000000000008152600401610a529061159d565b60405180910390fd5b600073ffffffffffffffffffffffffffffffffffffffff168173ffffffffffffffffffffffffffffffffffffffff161415610acb576040517f08c379a0000000000000000000000000000000000000000000000000000000008152600401610ac29061153d565b60405180910390fd5b8073ffffffffffffffffffffffffffffffffffffffff16600560019054906101000a900473ffffffffffffffffffffffffffffffffffffffff1673ffffffffffffffffffffffffffffffffffffffff167f8be0079c531659141344cd1fd0a4f28419497f9722a3daafe3b4186f6b6457e060405160405180910390a380600560016101000a81548173ffffffffffffffffffffffffffffffffffffffff021916908373ffffffffffffffffffffffffffffffffffffffff16021790555050565b600033905090565b600073ffffffffffffffffffffffffffffffffffffffff168373ffffffffffffffffffffffffffffffffffffffff161415610c03576040517f08c379a0000000000000000000000000000000000000000000000000000000008152600401610bfa906115dd565b60405180910390fd5b600073ffffffffffffffffffffffffffffffffffffffff168273ffffffffffffffffffffffffffffffffffffffff161415610c73576040517f08c379a0000000000000000000000000000000000000000000000000000000008152600401610c6a9061155d565b60405180910390fd5b80600160008573ffffffffffffffffffffffffffffffffffffffff1673ffffffffffffffffffffffffffffffffffffffff16815260200190815260200160002060008473ffffffffffffffffffffffffffffffffffffffff1673ffffffffffffffffffffffffffffffffffffffff168152602001908152602001600020819055508173ffffffffffffffffffffffffffffffffffffffff168373ffffffffffffffffffffffffffffffffffffffff167f8c5be1e5ebec7d5bd14f71427d1e84f3dd0314c0f7b2291e5b200ac8c7c3b92583604051610d5191906115fd565b60405180910390a3505050565b610d69838383610e1e565b505050565b6000838311158290610db6576040517f08c379a0000000000000000000000000000000000000000000000000000000008152600401610dad91906114fb565b60405180910390fd5b5060008385039050809150509392505050565b600080828401905083811015610e14576040517f08c379a0000000000000000000000000000000000000000000000000000000008152600401610e0b9061157d565b60405180910390fd5b8091505092915050565b600073ffffffffffffffffffffffffffffffffffffffff168373ffffffffffffffffffffffffffffffffffffffff161415610e8e576040517f08c379a0000000000000000000000000000000000000000000000000000000008152600401610e85906115bd565b60405180910390fd5b600073ffffffffffffffffffffffffffffffffffffffff168273ffffffffffffffffffffffffffffffffffffffff161415610efe576040517f08c379a0000000000000000000000000000000000000000000000000000000008152600401610ef59061151d565b60405180910390fd5b610f098383836110b3565b610f7481604051806060016040528060268152602001611717602691396000808773ffffffffffffffffffffffffffffffffffffffff1673ffffffffffffffffffffffffffffffffffffffff16815260200190815260200160002054610d6e9092919063ffffffff16565b6000808573ffffffffffffffffffffffffffffffffffffffff1673ffffffffffffffffffffffffffffffffffffffff16815260200190815260200160002081905550611007816000808573ffffffffffffffffffffffffffffffffffffffff1673ffffffffffffffffffffffffffffffffffffffff16815260200190815260200160002054610dc990919063ffffffff16565b6000808473ffffffffffffffffffffffffffffffffffffffff1673ffffffffffffffffffffffffffffffffffffffff168152602001908152602001600020819055508173ffffffffffffffffffffffffffffffffffffffff168373ffffffffffffffffffffffffffffffffffffffff167fddf252ad1be2c89b69c2b068fc378daa952ba7f163c4a11628f55a4df523b3ef836040516110a691906115fd565b60405180910390a3505050565b505050565b6000813590506110c7816116e8565b92915050565b6000813590506110dc816116ff565b92915050565b6000602082840312156110f457600080fd5b6000611102848285016110b8565b91505092915050565b6000806040838503121561111e57600080fd5b600061112c858286016110b8565b925050602061113d858286016110b8565b9150509250929050565b60008060006060848603121561115c57600080fd5b600061116a868287016110b8565b935050602061117b868287016110b8565b925050604061118c868287016110cd565b9150509250925092565b600080604083850312156111a957600080fd5b60006111b7858286016110b8565b92505060206111c8858286016110cd565b9150509250929050565b6111db8161164f565b82525050565b6111ea81611661565b82525050565b60006111fb82611633565b611205818561163e565b93506112158185602086016116a4565b61121e816116d7565b840191505092915050565b600061123660238361163e565b91507f45524332303a207472616e7366657220746f20746865207a65726f206164647260008301527f65737300000000000000000000000000000000000000000000000000000000006020830152604082019050919050565b600061129c60268361163e565b91507f4f776e61626c653a206e6577206f776e657220697320746865207a65726f206160008301527f64647265737300000000000000000000000000000000000000000000000000006020830152604082019050919050565b600061130260228361163e565b91507f45524332303a20617070726f766520746f20746865207a65726f20616464726560008301527f73730000000000000000000000000000000000000000000000000000000000006020830152604082019050919050565b6000611368601b8361163e565b91507f536166654d6174683a206164646974696f6e206f766572666c6f7700000000006000830152602082019050919050565b60006113a860208361163e565b91507f4f776e61626c653a2063616c6c6572206973206e6f7420746865206f776e65726000830152602082019050919050565b60006113e860258361163e565b91507f45524332303a207472616e736665722066726f6d20746865207a65726f20616460008301527f64726573730000000000000000000000000000000000000000000000000000006020830152604082019050919050565b600061144e60248361163e565b91507f45524332303a20617070726f76652066726f6d20746865207a65726f2061646460008301527f72657373000000000000000000000000000000000000000000000000000000006020830152604082019050919050565b6114b08161168d565b82525050565b6114bf81611697565b82525050565b60006020820190506114da60008301846111d2565b92915050565b60006020820190506114f560008301846111e1565b92915050565b6000602082019050818103600083015261151581846111f0565b905092915050565b6000602082019050818103600083015261153681611229565b9050919050565b600060208201905081810360008301526115568161128f565b9050919050565b60006020820190508181036000830152611576816112f5565b9050919050565b600060208201905081810360008301526115968161135b565b9050919050565b600060208201905081810360008301526115b68161139b565b9050919050565b600060208201905081810360008301526115d6816113db565b9050919050565b600060208201905081810360008301526115f681611441565b9050919050565b600060208201905061161260008301846114a7565b92915050565b600060208201905061162d60008301846114b6565b92915050565b600081519050919050565b600082825260208201905092915050565b600061165a8261166d565b9050919050565b60008115159050919050565b600073ffffffffffffffffffffffffffffffffffffffff82169050919050565b6000819050919050565b600060ff82169050919050565b60005b838110156116c25780820151818401526020810190506116a7565b838111156116d1576000848401525b50505050565b6000601f19601f8301169050919050565b6116f18161164f565b81146116fc57600080fd5b50565b6117088161168d565b811461171357600080fd5b5056fe45524332303a207472616e7366657220616d6f756e7420657863656564732062616c616e636545524332303a207472616e7366657220616d6f756e74206578636565647320616c6c6f77616e636545524332303a2064656372656173656420616c6c6f77616e63652062656c6f77207a65726fa2646970667358221220ac26a01380c3826557e3e261e356531b31d3424c0f71970896454f2cb77410b464736f6c63430006020033",
  "compiler": {
    "name": "solc",
    "version": "0.6.2+commit.bacdbe57.Emscripten.clang",
    "optimizer": {
      "enabled": false,
      "runs": 200
    },
    "evmVersion": "petersburg"
  }
}