{
  "fileName": "BTF_ETH.sol",
  "contractName": "BTF_ETH",
  "source": "/*\r\n    The contract implements exchange BTF-ETH\r\n*/\r\npragma solidity ^0.7.0;\r\npragma experimental ABIEncoderV2;\r\n\r\nimport \"@openzeppelin/contracts/token/ERC20/ERC20.sol\";\r\nimport \"@openzeppelin/contracts/access/ownable.sol\";\r\nimport \"@openzeppelin/contracts/math/SafeMath.sol\";\r\n\r\n/*\r\n    *** Tasks ***\r\n    - owner\r\n        //- deposit/withdrawal for BTF \r\n        //- set price      \r\n        - withdraw ETH\r\n        //- check balance\r\n    - user\r\n        //- get price\r\n        //- exchange\r\n*/\r\ncontract BTF_ETH is Ownable {\r\n    bool public IsActive = true;\r\n    address public contractOwner;\r\n    address public tokenAddress;\r\n    //\r\n    uint256 public Price; // BTF/ETH current price\r\n\r\n    using SafeMath for uint256;\r\n\r\n    modifier onlyContractOwner() {\r\n        require(\r\n            msg.sender == contractOwner,\r\n            \"error account - must be contract owner\"\r\n        );\r\n        _;\r\n    }\r\n\r\n    constructor(address _tokenAddress) public payable {\r\n        contractOwner = msg.sender;\r\n        tokenAddress = _tokenAddress;\r\n    }\r\n\r\n    function SetPrice(uint256 _price) public onlyContractOwner {\r\n        //\r\n        Price = _price;\r\n    }\r\n\r\n    // check BTF balance\r\n   /*  function ShowBalance() public view returns (uint256) {\r\n        ERC20 token = ERC20(tokenAddress);\r\n        return token.balanceOf(address(this));\r\n    } */\r\n\r\n    // withdraw - to deposit owner address\r\n    function WithdrawBTF(uint256 _amount) public payable onlyContractOwner {\r\n        ERC20 token = ERC20(tokenAddress);\r\n        require(\r\n            token.balanceOf(address(this)) >= _amount,\r\n            \"insufficient BTF balance for withdrawal\"\r\n        );\r\n        token.transfer(contractOwner, _amount);\r\n    }\r\n\r\n    function WithdrawETH(uint256 _amount) public payable onlyContractOwner {\r\n        ERC20 token = ERC20(tokenAddress);\r\n        require(\r\n            address(this).balance >= _amount,            \r\n            \"insufficient ETH balance for withdrawal\"\r\n        );\r\n        address payable rec = payable(contractOwner);\r\n        rec.transfer(_amount);        \r\n    }\r\n\r\n    //https://ethereum.org/en/developers/tutorials/transfers-and-approval-of-erc-20-tokens-from-a-solidity-smart-contract/\r\n    function Change() public payable {\r\n        ERC20 token = ERC20(tokenAddress);       \r\n        uint256 amountTobuy = (msg.value*10**18).div(Price); \r\n        uint256 curBalance = token.balanceOf(address(this));\r\n        require(amountTobuy > 0, \"You need to send some ether\");\r\n        require(amountTobuy <= curBalance, \"Not enough tokens in the reserve\");\r\n        token.transfer(msg.sender, amountTobuy);         \r\n    }\r\n}\r\n",
  "sourcePath": "contracts\\BTF_ETH.sol",
  "abi": [
    {
      "inputs": [
        {
          "internalType": "address",
          "name": "_tokenAddress",
          "type": "address"
        }
      ],
      "stateMutability": "payable",
      "type": "constructor"
    },
    {
      "anonymous": false,
      "inputs": [
        {
          "indexed": true,
          "internalType": "address",
          "name": "previousOwner",
          "type": "address"
        },
        {
          "indexed": true,
          "internalType": "address",
          "name": "newOwner",
          "type": "address"
        }
      ],
      "name": "OwnershipTransferred",
      "type": "event"
    },
    {
      "inputs": [],
      "name": "Change",
      "outputs": [],
      "stateMutability": "payable",
      "type": "function"
    },
    {
      "inputs": [],
      "name": "IsActive",
      "outputs": [
        {
          "internalType": "bool",
          "name": "",
          "type": "bool"
        }
      ],
      "stateMutability": "view",
      "type": "function"
    },
    {
      "inputs": [],
      "name": "Price",
      "outputs": [
        {
          "internalType": "uint256",
          "name": "",
          "type": "uint256"
        }
      ],
      "stateMutability": "view",
      "type": "function"
    },
    {
      "inputs": [
        {
          "internalType": "uint256",
          "name": "_price",
          "type": "uint256"
        }
      ],
      "name": "SetPrice",
      "outputs": [],
      "stateMutability": "nonpayable",
      "type": "function"
    },
    {
      "inputs": [
        {
          "internalType": "uint256",
          "name": "_amount",
          "type": "uint256"
        }
      ],
      "name": "WithdrawBTF",
      "outputs": [],
      "stateMutability": "payable",
      "type": "function"
    },
    {
      "inputs": [
        {
          "internalType": "uint256",
          "name": "_amount",
          "type": "uint256"
        }
      ],
      "name": "WithdrawETH",
      "outputs": [],
      "stateMutability": "payable",
      "type": "function"
    },
    {
      "inputs": [],
      "name": "contractOwner",
      "outputs": [
        {
          "internalType": "address",
          "name": "",
          "type": "address"
        }
      ],
      "stateMutability": "view",
      "type": "function"
    },
    {
      "inputs": [],
      "name": "owner",
      "outputs": [
        {
          "internalType": "address",
          "name": "",
          "type": "address"
        }
      ],
      "stateMutability": "view",
      "type": "function"
    },
    {
      "inputs": [],
      "name": "renounceOwnership",
      "outputs": [],
      "stateMutability": "nonpayable",
      "type": "function"
    },
    {
      "inputs": [],
      "name": "tokenAddress",
      "outputs": [
        {
          "internalType": "address",
          "name": "",
          "type": "address"
        }
      ],
      "stateMutability": "view",
      "type": "function"
    },
    {
      "inputs": [
        {
          "internalType": "address",
          "name": "newOwner",
          "type": "address"
        }
      ],
      "name": "transferOwnership",
      "outputs": [],
      "stateMutability": "nonpayable",
      "type": "function"
    }
  ],
  "bytecode": "0x60806040526001600060146101000a81548160ff021916908315150217905550604051620015a6380380620015a683398181016040528101906200004491906200019c565b6000620000566200017d60201b60201c565b9050806000806101000a81548173ffffffffffffffffffffffffffffffffffffffff021916908373ffffffffffffffffffffffffffffffffffffffff1602179055508073ffffffffffffffffffffffffffffffffffffffff16600073ffffffffffffffffffffffffffffffffffffffff167f8be0079c531659141344cd1fd0a4f28419497f9722a3daafe3b4186f6b6457e060405160405180910390a35033600160006101000a81548173ffffffffffffffffffffffffffffffffffffffff021916908373ffffffffffffffffffffffffffffffffffffffff16021790555080600260006101000a81548173ffffffffffffffffffffffffffffffffffffffff021916908373ffffffffffffffffffffffffffffffffffffffff1602179055505062000216565b600033905090565b6000815190506200019681620001fc565b92915050565b600060208284031215620001af57600080fd5b6000620001bf8482850162000185565b91505092915050565b6000620001d582620001dc565b9050919050565b600073ffffffffffffffffffffffffffffffffffffffff82169050919050565b6200020781620001c8565b81146200021357600080fd5b50565b61138080620002266000396000f3fe60806040526004361061009c5760003560e01c80638da5cb5b116100645780638da5cb5b1461013257806394effa141461015d5780639d76ea58146101795780639dfde201146101a4578063ce606ee0146101cf578063f2fde38b146101fa5761009c565b806309b33402146100a1578063231f23bb146100bd578063304dd754146100c75780634f5539c0146100f2578063715018a61461011b575b600080fd5b6100bb60048036038101906100b69190610d63565b610223565b005b6100c5610459565b005b3480156100d357600080fd5b506100dc610649565b6040516100e991906110ef565b60405180910390f35b3480156100fe57600080fd5b5061011960048036038101906101149190610d63565b61065c565b005b34801561012757600080fd5b506101306106f6565b005b34801561013e57600080fd5b50610147610849565b6040516101549190611082565b60405180910390f35b61017760048036038101906101729190610d63565b610872565b005b34801561018557600080fd5b5061018e6109f6565b60405161019b9190611082565b60405180910390f35b3480156101b057600080fd5b506101b9610a1c565b6040516101c6919061120c565b60405180910390f35b3480156101db57600080fd5b506101e4610a22565b6040516101f19190611082565b60405180910390f35b34801561020657600080fd5b50610221600480360381019061021c9190610d11565b610a48565b005b600160009054906101000a900473ffffffffffffffffffffffffffffffffffffffff1673ffffffffffffffffffffffffffffffffffffffff163373ffffffffffffffffffffffffffffffffffffffff16146102b3576040517f08c379a00000000000000000000000000000000000000000000000000000000081526004016102aa906111ac565b60405180910390fd5b6000600260009054906101000a900473ffffffffffffffffffffffffffffffffffffffff169050818173ffffffffffffffffffffffffffffffffffffffff166370a08231306040518263ffffffff1660e01b81526004016103149190611082565b60206040518083038186803b15801561032c57600080fd5b505afa158015610340573d6000803e3d6000fd5b505050506040513d601f19601f820116820180604052508101906103649190610d8c565b10156103a5576040517f08c379a000000000000000000000000000000000000000000000000000000000815260040161039c9061114c565b60405180910390fd5b8073ffffffffffffffffffffffffffffffffffffffff1663a9059cbb600160009054906101000a900473ffffffffffffffffffffffffffffffffffffffff16846040518363ffffffff1660e01b81526004016104029291906110c6565b602060405180830381600087803b15801561041c57600080fd5b505af1158015610430573d6000803e3d6000fd5b505050506040513d601f19601f820116820180604052508101906104549190610d3a565b505050565b6000600260009054906101000a900473ffffffffffffffffffffffffffffffffffffffff16905060006104a1600354670de0b6b3a76400003402610c0a90919063ffffffff16565b905060008273ffffffffffffffffffffffffffffffffffffffff166370a08231306040518263ffffffff1660e01b81526004016104de9190611082565b60206040518083038186803b1580156104f657600080fd5b505afa15801561050a573d6000803e3d6000fd5b505050506040513d601f19601f8201168201806040525081019061052e9190610d8c565b905060008211610573576040517f08c379a000000000000000000000000000000000000000000000000000000000815260040161056a906111ec565b60405180910390fd5b808211156105b6576040517f08c379a00000000000000000000000000000000000000000000000000000000081526004016105ad906111cc565b60405180910390fd5b8273ffffffffffffffffffffffffffffffffffffffff1663a9059cbb33846040518363ffffffff1660e01b81526004016105f192919061109d565b602060405180830381600087803b15801561060b57600080fd5b505af115801561061f573d6000803e3d6000fd5b505050506040513d601f19601f820116820180604052508101906106439190610d3a565b50505050565b600060149054906101000a900460ff1681565b600160009054906101000a900473ffffffffffffffffffffffffffffffffffffffff1673ffffffffffffffffffffffffffffffffffffffff163373ffffffffffffffffffffffffffffffffffffffff16146106ec576040517f08c379a00000000000000000000000000000000000000000000000000000000081526004016106e3906111ac565b60405180910390fd5b8060038190555050565b6106fe610c54565b73ffffffffffffffffffffffffffffffffffffffff1660008054906101000a900473ffffffffffffffffffffffffffffffffffffffff1673ffffffffffffffffffffffffffffffffffffffff161461078b576040517f08c379a00000000000000000000000000000000000000000000000000000000081526004016107829061116c565b60405180910390fd5b600073ffffffffffffffffffffffffffffffffffffffff1660008054906101000a900473ffffffffffffffffffffffffffffffffffffffff1673ffffffffffffffffffffffffffffffffffffffff167f8be0079c531659141344cd1fd0a4f28419497f9722a3daafe3b4186f6b6457e060405160405180910390a360008060006101000a81548173ffffffffffffffffffffffffffffffffffffffff021916908373ffffffffffffffffffffffffffffffffffffffff160217905550565b60008060009054906101000a900473ffffffffffffffffffffffffffffffffffffffff16905090565b600160009054906101000a900473ffffffffffffffffffffffffffffffffffffffff1673ffffffffffffffffffffffffffffffffffffffff163373ffffffffffffffffffffffffffffffffffffffff1614610902576040517f08c379a00000000000000000000000000000000000000000000000000000000081526004016108f9906111ac565b60405180910390fd5b6000600260009054906101000a900473ffffffffffffffffffffffffffffffffffffffff169050813073ffffffffffffffffffffffffffffffffffffffff16311015610983576040517f08c379a000000000000000000000000000000000000000000000000000000000815260040161097a9061118c565b60405180910390fd5b6000600160009054906101000a900473ffffffffffffffffffffffffffffffffffffffff1690508073ffffffffffffffffffffffffffffffffffffffff166108fc849081150290604051600060405180830381858888f193505050501580156109f0573d6000803e3d6000fd5b50505050565b600260009054906101000a900473ffffffffffffffffffffffffffffffffffffffff1681565b60035481565b600160009054906101000a900473ffffffffffffffffffffffffffffffffffffffff1681565b610a50610c54565b73ffffffffffffffffffffffffffffffffffffffff1660008054906101000a900473ffffffffffffffffffffffffffffffffffffffff1673ffffffffffffffffffffffffffffffffffffffff1614610add576040517f08c379a0000000000000000000000000000000000000000000000000000000008152600401610ad49061116c565b60405180910390fd5b600073ffffffffffffffffffffffffffffffffffffffff168173ffffffffffffffffffffffffffffffffffffffff161415610b4d576040517f08c379a0000000000000000000000000000000000000000000000000000000008152600401610b449061112c565b60405180910390fd5b8073ffffffffffffffffffffffffffffffffffffffff1660008054906101000a900473ffffffffffffffffffffffffffffffffffffffff1673ffffffffffffffffffffffffffffffffffffffff167f8be0079c531659141344cd1fd0a4f28419497f9722a3daafe3b4186f6b6457e060405160405180910390a3806000806101000a81548173ffffffffffffffffffffffffffffffffffffffff021916908373ffffffffffffffffffffffffffffffffffffffff16021790555050565b6000610c4c83836040518060400160405280601a81526020017f536166654d6174683a206469766973696f6e206279207a65726f000000000000815250610c5c565b905092915050565b600033905090565b60008083118290610ca3576040517f08c379a0000000000000000000000000000000000000000000000000000000008152600401610c9a919061110a565b60405180910390fd5b506000838581610caf57fe5b049050809150509392505050565b600081359050610ccc81611305565b92915050565b600081519050610ce18161131c565b92915050565b600081359050610cf681611333565b92915050565b600081519050610d0b81611333565b92915050565b600060208284031215610d2357600080fd5b6000610d3184828501610cbd565b91505092915050565b600060208284031215610d4c57600080fd5b6000610d5a84828501610cd2565b91505092915050565b600060208284031215610d7557600080fd5b6000610d8384828501610ce7565b91505092915050565b600060208284031215610d9e57600080fd5b6000610dac84828501610cfc565b91505092915050565b610dbe8161128b565b82525050565b610dcd81611243565b82525050565b610ddc81611255565b82525050565b6000610ded82611227565b610df78185611232565b9350610e078185602086016112c1565b610e10816112f4565b840191505092915050565b6000610e28602683611232565b91507f4f776e61626c653a206e6577206f776e657220697320746865207a65726f206160008301527f64647265737300000000000000000000000000000000000000000000000000006020830152604082019050919050565b6000610e8e602783611232565b91507f696e73756666696369656e74204254462062616c616e636520666f722077697460008301527f6864726177616c000000000000000000000000000000000000000000000000006020830152604082019050919050565b6000610ef4602083611232565b91507f4f776e61626c653a2063616c6c6572206973206e6f7420746865206f776e65726000830152602082019050919050565b6000610f34602783611232565b91507f696e73756666696369656e74204554482062616c616e636520666f722077697460008301527f6864726177616c000000000000000000000000000000000000000000000000006020830152604082019050919050565b6000610f9a602683611232565b91507f6572726f72206163636f756e74202d206d75737420626520636f6e747261637460008301527f206f776e657200000000000000000000000000000000000000000000000000006020830152604082019050919050565b6000611000602083611232565b91507f4e6f7420656e6f75676820746f6b656e7320696e2074686520726573657276656000830152602082019050919050565b6000611040601b83611232565b91507f596f75206e65656420746f2073656e6420736f6d6520657468657200000000006000830152602082019050919050565b61107c81611281565b82525050565b60006020820190506110976000830184610dc4565b92915050565b60006040820190506110b26000830185610db5565b6110bf6020830184611073565b9392505050565b60006040820190506110db6000830185610dc4565b6110e86020830184611073565b9392505050565b60006020820190506111046000830184610dd3565b92915050565b600060208201905081810360008301526111248184610de2565b905092915050565b6000602082019050818103600083015261114581610e1b565b9050919050565b6000602082019050818103600083015261116581610e81565b9050919050565b6000602082019050818103600083015261118581610ee7565b9050919050565b600060208201905081810360008301526111a581610f27565b9050919050565b600060208201905081810360008301526111c581610f8d565b9050919050565b600060208201905081810360008301526111e581610ff3565b9050919050565b6000602082019050818103600083015261120581611033565b9050919050565b60006020820190506112216000830184611073565b92915050565b600081519050919050565b600082825260208201905092915050565b600061124e82611261565b9050919050565b60008115159050919050565b600073ffffffffffffffffffffffffffffffffffffffff82169050919050565b6000819050919050565b60006112968261129d565b9050919050565b60006112a8826112af565b9050919050565b60006112ba82611261565b9050919050565b60005b838110156112df5780820151818401526020810190506112c4565b838111156112ee576000848401525b50505050565b6000601f19601f8301169050919050565b61130e81611243565b811461131957600080fd5b50565b61132581611255565b811461133057600080fd5b50565b61133c81611281565b811461134757600080fd5b5056fea264697066735822122097f9df21d841adf5617e75b1799b2bcd1601cbfacdcd0755ae0e6a904d35689764736f6c63430007000033",
  "compiler": {
    "name": "solc",
    "version": "0.7.0+commit.9e61f92b.Emscripten.clang",
    "optimizer": {
      "enabled": false,
      "runs": 200
    },
    "evmVersion": "petersburg"
  }
}