{
  "fileName": "BTF_deposits.sol",
  "contractName": "BTFDepositPool",
  "source": "/*\r\n    The contract implements simple deposits, \r\n    providing to depositor interest according to amount, expiration period \r\n    and availible interest fund. \r\n    MainNet Version (14/10/2020)\r\n*/\r\npragma solidity ^0.6.0;\r\npragma experimental ABIEncoderV2;\r\n\r\nimport \"@openzeppelin/contracts/token/ERC20/ERC20.sol\";\r\n\r\ncontract BTFDepositPool {\r\n    bool public IsFree = true;\r\n    address public contractOwner;\r\n    address public tokenAddress;\r\n    uint256 public minDeposit = 1000 * 10**18;\r\n    uint256 public maxDeposit = 50000 * 10**18;\r\n    uint256 public maxNumberOfMonths = 12; // 360;\r\n    uint256 public minNumberOfMonths = 1; // 1;\r\n    uint256 private maxInterestCoef = 5;\r\n\r\n    struct Deposit {\r\n        address owner;\r\n        uint256 dtime; // deposit time\r\n        uint256 amount; // deposit amount\r\n        uint256 balance; // amount to withdrawal\r\n        uint256 deadline; // expiration\r\n        bool closed;\r\n    }    \r\n\r\n    // array of active deposits\r\n    Deposit[] public deposits;\r\n\r\n    constructor(address _tokenAddress) public payable {\r\n        contractOwner = msg.sender;\r\n        tokenAddress = _tokenAddress;\r\n    }   \r\n\r\n    // depositor actions\r\n    function deposit(uint256 amount, uint256 numberOfMonths) public payable {\r\n        // init access to the basic token\r\n        ERC20 token = ERC20(tokenAddress);\r\n        // min, max, interval constrains\r\n        require(\r\n            amount >= minDeposit,\r\n            \"btf_error: [amount must be not less than minDeposit]\"\r\n        );\r\n        require(\r\n            amount <= maxDeposit,\r\n            \"btf_error: [amount must be not greater than maxDeposit]\"\r\n        );\r\n        require(\r\n            numberOfMonths >= minNumberOfMonths,\r\n            \"btf_error: [interval must be not less than minNumberOfDays]\"\r\n        );\r\n        require(\r\n            numberOfMonths <= maxNumberOfMonths,\r\n            \"btf_error: [interval must be not not greater than maxNumberOfDays]\"\r\n        );\r\n        // the owner balance must be not less than amount\r\n        require(\r\n            token.balanceOf(msg.sender) >= amount,\r\n            \"btf_error: [insufficient balance]\"\r\n        );\r\n        \r\n        uint256 deadline = now + (numberOfMonths * 30 * 1 days);       \r\n        uint256 depositBalance = amount + depRate(amount, numberOfMonths);\r\n\r\n        bool isNotMoved = true;\r\n        for (uint i = 0; i < deposits.length; i++) {\r\n            if (isNotMoved && deposits[i].closed) \r\n            {\r\n                deposits[i].owner = msg.sender;\r\n                deposits[i].dtime = now;\r\n                deposits[i].amount = amount;\r\n                deposits[i].balance = depositBalance;\r\n                deposits[i].deadline = deadline;\r\n                deposits[i].closed = false;\r\n                isNotMoved = false;\r\n            }\r\n        }                \r\n        if(isNotMoved){\r\n            deposits.push(Deposit(msg.sender, now, amount, depositBalance, deadline,false));\r\n        }\r\n\r\n        // try to send the tokens from sender to contract\r\n        token.transferFrom(msg.sender, address(this), amount);\r\n\r\n    }\r\n\r\n    // withdraw - to deposit owner address\r\n    function withdraw() public payable {\r\n        ERC20 token = ERC20(tokenAddress);\r\n        for (uint256 i = 0; i < deposits.length; i++) {\r\n            if (\r\n                deposits[i].owner == msg.sender &&\r\n                now >= deposits[i].deadline &&\r\n                (!deposits[i].closed)\r\n            ) {\r\n                token.transfer(msg.sender, deposits[i].balance);\r\n                deposits[i].closed = true;\r\n            }\r\n        }\r\n    }\r\n\r\n    // get deposit reports for the sender\r\n    function depReport(address a) public view returns (Deposit[] memory) {\r\n        Deposit[] memory deps = new Deposit[](deposits.length);\r\n        uint256 n = 0;\r\n        for (uint256 i = 0; i < deposits.length; i++) {\r\n            if (deposits[i].owner == a && deposits[i].balance > uint256(0)) {\r\n                deps[n] = Deposit(\r\n                    deposits[i].owner,\r\n                    deposits[i].dtime,\r\n                    deposits[i].amount,\r\n                    deposits[i].balance,\r\n                    deposits[i].deadline,\r\n                    deposits[i].closed\r\n                );\r\n                n++;\r\n            }\r\n        }\r\n        return deps;\r\n    }\r\n\r\n    // get msg.sender deposits\r\n    function depReportA() public view returns (Deposit[] memory) {\r\n        return depReport(msg.sender);\r\n    }\r\n\r\n    // check total deposits & delayed payments balance\r\n    function depTotalBalance() public view returns (uint256) {\r\n        uint256 res = 0;\r\n        for (uint256 i = 0; i < deposits.length; i++) {\r\n            if (!deposits[i].closed) {\r\n                res += deposits[i].balance;\r\n            }\r\n        }\r\n        return res;\r\n    }\r\n\r\n    // check pool balance\r\n    function balance() public view returns (uint256) {\r\n        ERC20 token = ERC20(tokenAddress);\r\n        return token.balanceOf(address(this));\r\n    }\r\n\r\n    // get deposit reports for all users\r\n    function depReportAll() public view returns (Deposit[] memory) {\r\n        return deposits;\r\n    }\r\n\r\n    // math\r\n    // maximal bonus\r\n    function maxBonus(uint256 amount) internal view returns (uint256) {\r\n        uint256 b = (balance() - depTotalBalance()) / maxInterestCoef; // max bonus must be <= 1/maxInteresrCoef of free balance\r\n        require(b > 0, \"btf_error: [sorry, the deposit fund is empty...]\");\r\n        uint256 max = 50000 * 10**18; // abs max bonus\r\n        if (b > max) return amount;\r\n        else return (b * amount) / max;\r\n    }\r\n\r\n    // deposit interest rate\r\n    function depRate(uint256 amount, uint256 numberOfDays)\r\n        public\r\n        view\r\n        returns (uint256)\r\n    {\r\n        uint256 a1 = 673;\r\n        uint256 a2 = 1304;\r\n        uint256 a3 = 1276;\r\n        uint256 am = amount / (1000 * 10**18);\r\n        return\r\n            (maxBonus(amount) *\r\n                (am * a1 + am * numberOfDays * a2 + a3 * numberOfDays**2)) /\r\n            1000000;\r\n    }\r\n}\r\n",
  "sourcePath": "contracts\\BTF_deposits.sol",
  "abi": [
    {
      "inputs": [
        {
          "internalType": "address",
          "name": "_tokenAddress",
          "type": "address"
        }
      ],
      "stateMutability": "payable",
      "type": "constructor"
    },
    {
      "inputs": [],
      "name": "IsFree",
      "outputs": [
        {
          "internalType": "bool",
          "name": "",
          "type": "bool"
        }
      ],
      "stateMutability": "view",
      "type": "function"
    },
    {
      "inputs": [],
      "name": "balance",
      "outputs": [
        {
          "internalType": "uint256",
          "name": "",
          "type": "uint256"
        }
      ],
      "stateMutability": "view",
      "type": "function"
    },
    {
      "inputs": [],
      "name": "contractOwner",
      "outputs": [
        {
          "internalType": "address",
          "name": "",
          "type": "address"
        }
      ],
      "stateMutability": "view",
      "type": "function"
    },
    {
      "inputs": [
        {
          "internalType": "uint256",
          "name": "amount",
          "type": "uint256"
        },
        {
          "internalType": "uint256",
          "name": "numberOfDays",
          "type": "uint256"
        }
      ],
      "name": "depRate",
      "outputs": [
        {
          "internalType": "uint256",
          "name": "",
          "type": "uint256"
        }
      ],
      "stateMutability": "view",
      "type": "function"
    },
    {
      "inputs": [
        {
          "internalType": "address",
          "name": "a",
          "type": "address"
        }
      ],
      "name": "depReport",
      "outputs": [
        {
          "components": [
            {
              "internalType": "address",
              "name": "owner",
              "type": "address"
            },
            {
              "internalType": "uint256",
              "name": "dtime",
              "type": "uint256"
            },
            {
              "internalType": "uint256",
              "name": "amount",
              "type": "uint256"
            },
            {
              "internalType": "uint256",
              "name": "balance",
              "type": "uint256"
            },
            {
              "internalType": "uint256",
              "name": "deadline",
              "type": "uint256"
            },
            {
              "internalType": "bool",
              "name": "closed",
              "type": "bool"
            }
          ],
          "internalType": "struct BTFDepositPool.Deposit[]",
          "name": "",
          "type": "tuple[]"
        }
      ],
      "stateMutability": "view",
      "type": "function"
    },
    {
      "inputs": [],
      "name": "depReportA",
      "outputs": [
        {
          "components": [
            {
              "internalType": "address",
              "name": "owner",
              "type": "address"
            },
            {
              "internalType": "uint256",
              "name": "dtime",
              "type": "uint256"
            },
            {
              "internalType": "uint256",
              "name": "amount",
              "type": "uint256"
            },
            {
              "internalType": "uint256",
              "name": "balance",
              "type": "uint256"
            },
            {
              "internalType": "uint256",
              "name": "deadline",
              "type": "uint256"
            },
            {
              "internalType": "bool",
              "name": "closed",
              "type": "bool"
            }
          ],
          "internalType": "struct BTFDepositPool.Deposit[]",
          "name": "",
          "type": "tuple[]"
        }
      ],
      "stateMutability": "view",
      "type": "function"
    },
    {
      "inputs": [],
      "name": "depReportAll",
      "outputs": [
        {
          "components": [
            {
              "internalType": "address",
              "name": "owner",
              "type": "address"
            },
            {
              "internalType": "uint256",
              "name": "dtime",
              "type": "uint256"
            },
            {
              "internalType": "uint256",
              "name": "amount",
              "type": "uint256"
            },
            {
              "internalType": "uint256",
              "name": "balance",
              "type": "uint256"
            },
            {
              "internalType": "uint256",
              "name": "deadline",
              "type": "uint256"
            },
            {
              "internalType": "bool",
              "name": "closed",
              "type": "bool"
            }
          ],
          "internalType": "struct BTFDepositPool.Deposit[]",
          "name": "",
          "type": "tuple[]"
        }
      ],
      "stateMutability": "view",
      "type": "function"
    },
    {
      "inputs": [],
      "name": "depTotalBalance",
      "outputs": [
        {
          "internalType": "uint256",
          "name": "",
          "type": "uint256"
        }
      ],
      "stateMutability": "view",
      "type": "function"
    },
    {
      "inputs": [
        {
          "internalType": "uint256",
          "name": "amount",
          "type": "uint256"
        },
        {
          "internalType": "uint256",
          "name": "numberOfMonths",
          "type": "uint256"
        }
      ],
      "name": "deposit",
      "outputs": [],
      "stateMutability": "payable",
      "type": "function"
    },
    {
      "inputs": [
        {
          "internalType": "uint256",
          "name": "",
          "type": "uint256"
        }
      ],
      "name": "deposits",
      "outputs": [
        {
          "internalType": "address",
          "name": "owner",
          "type": "address"
        },
        {
          "internalType": "uint256",
          "name": "dtime",
          "type": "uint256"
        },
        {
          "internalType": "uint256",
          "name": "amount",
          "type": "uint256"
        },
        {
          "internalType": "uint256",
          "name": "balance",
          "type": "uint256"
        },
        {
          "internalType": "uint256",
          "name": "deadline",
          "type": "uint256"
        },
        {
          "internalType": "bool",
          "name": "closed",
          "type": "bool"
        }
      ],
      "stateMutability": "view",
      "type": "function"
    },
    {
      "inputs": [],
      "name": "maxDeposit",
      "outputs": [
        {
          "internalType": "uint256",
          "name": "",
          "type": "uint256"
        }
      ],
      "stateMutability": "view",
      "type": "function"
    },
    {
      "inputs": [],
      "name": "maxNumberOfMonths",
      "outputs": [
        {
          "internalType": "uint256",
          "name": "",
          "type": "uint256"
        }
      ],
      "stateMutability": "view",
      "type": "function"
    },
    {
      "inputs": [],
      "name": "minDeposit",
      "outputs": [
        {
          "internalType": "uint256",
          "name": "",
          "type": "uint256"
        }
      ],
      "stateMutability": "view",
      "type": "function"
    },
    {
      "inputs": [],
      "name": "minNumberOfMonths",
      "outputs": [
        {
          "internalType": "uint256",
          "name": "",
          "type": "uint256"
        }
      ],
      "stateMutability": "view",
      "type": "function"
    },
    {
      "inputs": [],
      "name": "tokenAddress",
      "outputs": [
        {
          "internalType": "address",
          "name": "",
          "type": "address"
        }
      ],
      "stateMutability": "view",
      "type": "function"
    },
    {
      "inputs": [],
      "name": "withdraw",
      "outputs": [],
      "stateMutability": "payable",
      "type": "function"
    }
  ],
  "bytecode": "0x608060405260016000806101000a81548160ff021916908315150217905550683635c9adc5dea00000600255690a968163f0a57b400000600355600c6004556001600555600560065560405162001bcd38038062001bcd83398181016040526200006d91908101906200010d565b33600060016101000a81548173ffffffffffffffffffffffffffffffffffffffff021916908373ffffffffffffffffffffffffffffffffffffffff16021790555080600160006101000a81548173ffffffffffffffffffffffffffffffffffffffff021916908373ffffffffffffffffffffffffffffffffffffffff1602179055505062000187565b60008151905062000107816200016d565b92915050565b6000602082840312156200012057600080fd5b60006200013084828501620000f6565b91505092915050565b600062000146826200014d565b9050919050565b600073ffffffffffffffffffffffffffffffffffffffff82169050919050565b620001788162000139565b81146200018457600080fd5b50565b611a3680620001976000396000f3fe6080604052600436106100f35760003560e01c80639238ece91161008a578063b02c43d011610059578063b02c43d0146102ff578063b69ef8a814610341578063ce606ee01461036c578063e2bbb15814610397576100f3565b80639238ece91461024157806398fe081c1461026c5780639d76ea58146102a9578063abd29ba4146102d4576100f3565b80633ccfd60b116100c65780633ccfd60b146101a457806341b3d185146101ae5780634f092062146101d95780636083e59a14610216576100f3565b8063045e41e2146100f857806305016256146101235780631cdd771c1461014e57806327b8584714610179575b600080fd5b34801561010457600080fd5b5061010d6103b3565b60405161011a91906117db565b60405180910390f35b34801561012f57600080fd5b506101386103c3565b60405161014591906118d8565b60405180910390f35b34801561015a57600080fd5b506101636103c9565b60405161017091906118d8565b60405180910390f35b34801561018557600080fd5b5061018e61044c565b60405161019b91906117db565b60405180910390f35b6101ac610544565b005b3480156101ba57600080fd5b506101c3610744565b6040516101d091906118d8565b60405180910390f35b3480156101e557600080fd5b5061020060048036036101fb91908101906112c4565b61074a565b60405161020d91906118d8565b60405180910390f35b34801561022257600080fd5b5061022b6107a9565b60405161023891906118d8565b60405180910390f35b34801561024d57600080fd5b506102566107af565b60405161026391906118d8565b60405180910390f35b34801561027857600080fd5b50610293600480360361028e9190810190611220565b6107b5565b6040516102a091906117db565b60405180910390f35b3480156102b557600080fd5b506102be610a0c565b6040516102cb91906116e4565b60405180910390f35b3480156102e057600080fd5b506102e9610a32565b6040516102f691906117fd565b60405180910390f35b34801561030b57600080fd5b5061032660048036036103219190810190611272565b610a44565b6040516103389695949392919061177a565b60405180910390f35b34801561034d57600080fd5b50610356610aba565b60405161036391906118d8565b60405180910390f35b34801561037857600080fd5b50610381610b71565b60405161038e91906116e4565b60405180910390f35b6103b160048036036103ac91908101906112c4565b610b97565b005b60606103be336107b5565b905090565b60045481565b6000806000905060008090505b60078054905081101561044457600781815481106103f057fe5b906000526020600020906006020160050160009054906101000a900460ff16610437576007818154811061042057fe5b906000526020600020906006020160030154820191505b80806001019150506103d6565b508091505090565b60606007805480602002602001604051908101604052809291908181526020016000905b8282101561053b57838290600052602060002090600602016040518060c00160405290816000820160009054906101000a900473ffffffffffffffffffffffffffffffffffffffff1673ffffffffffffffffffffffffffffffffffffffff1673ffffffffffffffffffffffffffffffffffffffff168152602001600182015481526020016002820154815260200160038201548152602001600482015481526020016005820160009054906101000a900460ff16151515158152505081526020019060010190610470565b50505050905090565b6000600160009054906101000a900473ffffffffffffffffffffffffffffffffffffffff16905060008090505b600780549050811015610740573373ffffffffffffffffffffffffffffffffffffffff16600782815481106105a257fe5b906000526020600020906006020160000160009054906101000a900473ffffffffffffffffffffffffffffffffffffffff1673ffffffffffffffffffffffffffffffffffffffff161480156106155750600781815481106105ff57fe5b9060005260206000209060060201600401544210155b801561064a57506007818154811061062957fe5b906000526020600020906006020160050160009054906101000a900460ff16155b15610733578173ffffffffffffffffffffffffffffffffffffffff1663a9059cbb336007848154811061067957fe5b9060005260206000209060060201600301546040518363ffffffff1660e01b81526004016106a8929190611751565b602060405180830381600087803b1580156106c257600080fd5b505af11580156106d6573d6000803e3d6000fd5b505050506040513d601f19601f820116820180604052506106fa9190810190611249565b5060016007828154811061070a57fe5b906000526020600020906006020160050160006101000a81548160ff0219169083151502179055505b8080600101915050610571565b5050565b60025481565b6000806102a190506000610518905060006104fc90506000683635c9adc5dea00000878161077457fe5b049050620f42406002870a830284888402028684020101610794896110e3565b028161079c57fe5b0494505050505092915050565b60035481565b60055481565b6060806007805490506040519080825280602002602001820160405280156107f757816020015b6107e461117e565b8152602001906001900390816107dc5790505b509050600080905060008090505b600780549050811015610a01578473ffffffffffffffffffffffffffffffffffffffff166007828154811061083657fe5b906000526020600020906006020160000160009054906101000a900473ffffffffffffffffffffffffffffffffffffffff1673ffffffffffffffffffffffffffffffffffffffff161480156108a9575060006007828154811061089557fe5b906000526020600020906006020160030154115b156109f4576040518060c00160405280600783815481106108c657fe5b906000526020600020906006020160000160009054906101000a900473ffffffffffffffffffffffffffffffffffffffff1673ffffffffffffffffffffffffffffffffffffffff1681526020016007838154811061092057fe5b90600052602060002090600602016001015481526020016007838154811061094457fe5b90600052602060002090600602016002015481526020016007838154811061096857fe5b90600052602060002090600602016003015481526020016007838154811061098c57fe5b9060005260206000209060060201600401548152602001600783815481106109b057fe5b906000526020600020906006020160050160009054906101000a900460ff1615158152508383815181106109e057fe5b602002602001018190525081806001019250505b8080600101915050610805565b508192505050919050565b600160009054906101000a900473ffffffffffffffffffffffffffffffffffffffff1681565b6000809054906101000a900460ff1681565b60078181548110610a5157fe5b90600052602060002090600602016000915090508060000160009054906101000a900473ffffffffffffffffffffffffffffffffffffffff16908060010154908060020154908060030154908060040154908060050160009054906101000a900460ff16905086565b600080600160009054906101000a900473ffffffffffffffffffffffffffffffffffffffff1690508073ffffffffffffffffffffffffffffffffffffffff166370a08231306040518263ffffffff1660e01b8152600401610b1b91906116e4565b60206040518083038186803b158015610b3357600080fd5b505afa158015610b47573d6000803e3d6000fd5b505050506040513d601f19601f82011682018060405250610b6b919081019061129b565b91505090565b600060019054906101000a900473ffffffffffffffffffffffffffffffffffffffff1681565b6000600160009054906101000a900473ffffffffffffffffffffffffffffffffffffffff169050600254831015610c03576040517f08c379a0000000000000000000000000000000000000000000000000000000008152600401610bfa90611898565b60405180910390fd5b600354831115610c48576040517f08c379a0000000000000000000000000000000000000000000000000000000008152600401610c3f906118b8565b60405180910390fd5b600554821015610c8d576040517f08c379a0000000000000000000000000000000000000000000000000000000008152600401610c8490611878565b60405180910390fd5b600454821115610cd2576040517f08c379a0000000000000000000000000000000000000000000000000000000008152600401610cc990611838565b60405180910390fd5b828173ffffffffffffffffffffffffffffffffffffffff166370a08231336040518263ffffffff1660e01b8152600401610d0c91906116ff565b60206040518083038186803b158015610d2457600080fd5b505afa158015610d38573d6000803e3d6000fd5b505050506040513d601f19601f82011682018060405250610d5c919081019061129b565b1015610d9d576040517f08c379a0000000000000000000000000000000000000000000000000000000008152600401610d9490611818565b60405180910390fd5b600062015180601e840202420190506000610db8858561074a565b8501905060006001905060008090505b600780549050811015610f4157818015610e0a575060078181548110610dea57fe5b906000526020600020906006020160050160009054906101000a900460ff165b15610f34573360078281548110610e1d57fe5b906000526020600020906006020160000160006101000a81548173ffffffffffffffffffffffffffffffffffffffff021916908373ffffffffffffffffffffffffffffffffffffffff1602179055504260078281548110610e7a57fe5b9060005260206000209060060201600101819055508660078281548110610e9d57fe5b9060005260206000209060060201600201819055508260078281548110610ec057fe5b9060005260206000209060060201600301819055508360078281548110610ee357fe5b906000526020600020906006020160040181905550600060078281548110610f0757fe5b906000526020600020906006020160050160006101000a81548160ff021916908315150217905550600091505b8080600101915050610dc8565b50801561104b5760076040518060c001604052803373ffffffffffffffffffffffffffffffffffffffff16815260200142815260200188815260200184815260200185815260200160001515815250908060018154018082558091505060019003906000526020600020906006020160009091909190915060008201518160000160006101000a81548173ffffffffffffffffffffffffffffffffffffffff021916908373ffffffffffffffffffffffffffffffffffffffff1602179055506020820151816001015560408201518160020155606082015181600301556080820151816004015560a08201518160050160006101000a81548160ff02191690831515021790555050505b8373ffffffffffffffffffffffffffffffffffffffff166323b872dd3330896040518463ffffffff1660e01b81526004016110889392919061171a565b602060405180830381600087803b1580156110a257600080fd5b505af11580156110b6573d6000803e3d6000fd5b505050506040513d601f19601f820116820180604052506110da9190810190611249565b50505050505050565b6000806006546110f16103c9565b6110f9610aba565b038161110157fe5b04905060008111611147576040517f08c379a000000000000000000000000000000000000000000000000000000000815260040161113e90611858565b60405180910390fd5b6000690a968163f0a57b400000905080821115611168578392505050611179565b808483028161117357fe5b04925050505b919050565b6040518060c00160405280600073ffffffffffffffffffffffffffffffffffffffff168152602001600081526020016000815260200160008152602001600081526020016000151581525090565b6000813590506111db816119bb565b92915050565b6000815190506111f0816119d2565b92915050565b600081359050611205816119e9565b92915050565b60008151905061121a816119e9565b92915050565b60006020828403121561123257600080fd5b6000611240848285016111cc565b91505092915050565b60006020828403121561125b57600080fd5b6000611269848285016111e1565b91505092915050565b60006020828403121561128457600080fd5b6000611292848285016111f6565b91505092915050565b6000602082840312156112ad57600080fd5b60006112bb8482850161120b565b91505092915050565b600080604083850312156112d757600080fd5b60006112e5858286016111f6565b92505060206112f6858286016111f6565b9150509250929050565b600061130c838361164b565b60c08301905092915050565b61132181611985565b82525050565b6113308161193d565b82525050565b61133f8161193d565b82525050565b600061135082611903565b61135a818561191b565b9350611365836118f3565b8060005b8381101561139657815161137d8882611300565b97506113888361190e565b925050600181019050611369565b5085935050505092915050565b6113ac8161194f565b82525050565b6113bb8161194f565b82525050565b60006113ce60218361192c565b91507f6274665f6572726f723a205b696e73756666696369656e742062616c616e636560008301527f5d000000000000000000000000000000000000000000000000000000000000006020830152604082019050919050565b600061143460428361192c565b91507f6274665f6572726f723a205b696e74657276616c206d757374206265206e6f7460008301527f206e6f742067726561746572207468616e206d61784e756d6265724f6644617960208301527f735d0000000000000000000000000000000000000000000000000000000000006040830152606082019050919050565b60006114c060308361192c565b91507f6274665f6572726f723a205b736f7272792c20746865206465706f736974206660008301527f756e6420697320656d7074792e2e2e5d000000000000000000000000000000006020830152604082019050919050565b6000611526603b8361192c565b91507f6274665f6572726f723a205b696e74657276616c206d757374206265206e6f7460008301527f206c657373207468616e206d696e4e756d6265724f66446179735d00000000006020830152604082019050919050565b600061158c60348361192c565b91507f6274665f6572726f723a205b616d6f756e74206d757374206265206e6f74206c60008301527f657373207468616e206d696e4465706f7369745d0000000000000000000000006020830152604082019050919050565b60006115f260378361192c565b91507f6274665f6572726f723a205b616d6f756e74206d757374206265206e6f74206760008301527f726561746572207468616e206d61784465706f7369745d0000000000000000006020830152604082019050919050565b60c0820160008201516116616000850182611327565b50602082015161167460208501826116c6565b50604082015161168760408501826116c6565b50606082015161169a60608501826116c6565b5060808201516116ad60808501826116c6565b5060a08201516116c060a08501826113a3565b50505050565b6116cf8161197b565b82525050565b6116de8161197b565b82525050565b60006020820190506116f96000830184611336565b92915050565b60006020820190506117146000830184611318565b92915050565b600060608201905061172f6000830186611318565b61173c6020830185611336565b61174960408301846116d5565b949350505050565b60006040820190506117666000830185611318565b61177360208301846116d5565b9392505050565b600060c08201905061178f6000830189611336565b61179c60208301886116d5565b6117a960408301876116d5565b6117b660608301866116d5565b6117c360808301856116d5565b6117d060a08301846113b2565b979650505050505050565b600060208201905081810360008301526117f58184611345565b905092915050565b600060208201905061181260008301846113b2565b92915050565b60006020820190508181036000830152611831816113c1565b9050919050565b6000602082019050818103600083015261185181611427565b9050919050565b60006020820190508181036000830152611871816114b3565b9050919050565b6000602082019050818103600083015261189181611519565b9050919050565b600060208201905081810360008301526118b18161157f565b9050919050565b600060208201905081810360008301526118d1816115e5565b9050919050565b60006020820190506118ed60008301846116d5565b92915050565b6000819050602082019050919050565b600081519050919050565b6000602082019050919050565b600082825260208201905092915050565b600082825260208201905092915050565b60006119488261195b565b9050919050565b60008115159050919050565b600073ffffffffffffffffffffffffffffffffffffffff82169050919050565b6000819050919050565b600061199082611997565b9050919050565b60006119a2826119a9565b9050919050565b60006119b48261195b565b9050919050565b6119c48161193d565b81146119cf57600080fd5b50565b6119db8161194f565b81146119e657600080fd5b50565b6119f28161197b565b81146119fd57600080fd5b5056fea2646970667358221220cb6ef1fe9c2ab0733787fe9f15cbd5978643ca29be872cc6f044e6ff3de4481264736f6c63430006020033",
  "compiler": {
    "name": "solc",
    "version": "0.6.2+commit.bacdbe57.Emscripten.clang",
    "optimizer": {
      "enabled": false,
      "runs": 200
    },
    "evmVersion": "petersburg"
  }
}